:0E0000000C9459000C9400000C9400000C9419
:10000E0000000C9400000C9400000C9400000C9462
:10001E0000000C9400000C9400000C9400000C9452
:10002E0089000C9400000C9400000C9400000C94B9
:10003E0000000C9400000C9400000C9400000C9432
:10004E0000000C9400001027E80364000A00010071
:10005E000010000110000100416C61726D205061B2
:10006E00726B697220202020004A6172616B203D04
:10007E0020256420636D2000546567616E67616E94
:10008E0020537570706C7920200056203D2025304D
:10009E002E316620566F6C74200080C002008502DF
:1000AE00A8000000F894EE27ECBBF1E0FBBFEBBF1D
:1000BE00E5BFF8E1F1BDE1BD8DE0A2E0BB27ED9318
:1000CE008A95E9F780E098E0A0E6ED930197E9F7CD
:1000DE00EAEAF0E085919591009761F0A591B591CE
:1000EE0005901590BF01F00105900D920197E1F773
:1000FE00FB01F0CFEFE5EDBFE8E0EEBFC0E6D2E0EA
:10010E000C94F300EA93FA93EFB7EA93E8E9E2BFAF
:10011E00F20131962F01E991EFBFF991E99118950E
:10012E00AA93E881E7B985E38A95F1F7369A349B6D
:10013E00FECF349AE4B1F5B10C94B703E8E9E2BF0F
:10014E0044245524909A85E38A95F1F79098819BE3
:10015E00FECFE2E0E3BF819B05C0E0EFF0E0E415E7
:10016E00F50509F401C0F7CFE0E0E3BF742CA5E07C
:10017E000E94D203EAE0F0E04E165F0610F4929A67
:10018E000DC0E3E3F0E04E165F0638F4929AF201EA
:10019E00EE0FFF1FDF010E94150492980895A0E054
:1001AE00BFDF662777270E944E04A0E0B0E08CE503
:1001BE0092E40E947C04DF01CB01E0E0F0E060E815
:1001CE0074E40E94CA04E0938102F0938202609369
:1001DE008302709384020895FF24E0E0EBBBEABB38
:1001EE00E0E8E8BBE7BBE5BBE0E0E4BBE2BBE5E093
:1001FE00E1BBE1E0E3BFE8E9E2BFE0E0ECBFEFBD69
:10020E00EEBDEDBDECBDE7BDE6BDEBBDEABDE9BDA6
:10021E00E8BDE2BDE5BDE4BDE3BDE5BFE4BFE1E0A1
:10022E00E9BFE0E0EAB9E0E8E8B9E0E0E0BFE7B94D
:10023E00E4E8E6B9E0E0EDB9E6BFA0E10E948C0388
:10024E0078949F9909C0E1E0FE26A0E0F0FCA1E0C1
:10025E00A23010F0E894F0F8F0FC12C06FDFE0E08E
:10026E00EA93A0E00E943803A6E6B0E00E94D50310
:10027E00E7E7F0E0FA93EA93F2016627772716C0D4
:10028E008EDFE0E0EA93A0E00E943803A6E8B0E03B
:10029E000E94D503E8E9F0E0FA93EA93E091810237
:1002AE00F091820260918302709184020E942C056B
:1002BE0084E00E94E3022896A0E6B2E00E946A0360
:1002CE00A4E60E94D203BDCFFFCFBA93AA931A938E
:1002DE000A93AA81BB8112960E942405309759F188
:1002EE00AA81BB8114960E9424058F01309761F07C
:1002FE000230E0E01E07F0F0F80131978F01AA817D
:10030E00BB811496ED93FC93AA81BB811296ED915D
:10031E00FD913196FE93EE933197AC81A083AA8125
:10032E00BB810E942405FF232AF0ED91FD913196A9
:10033E00FE93EE9306C0AA81BB81EFEFFFEFED9324
:10034E00FC931981088125960895BA93AA9326974E
:10035E000E94310510E0AC85BD85E0E0F0E0ED9344
:10036E00FC93EA89FB893196EA8BFB8B3197E491FA
:10037E002E2FE03011F40C94DB02E12FE03039F433
:10038E00253211F411E002C00E94E1030CC1E130EC
:10039E00A9F4253219F40E94E10304C112E040E0F1
:1003AE0000E02D3211F401E0FEC02B3211F44BE2CD
:1003BE00FAC0203211F440E2F6C002C0E23039F445
:1003CE0050E013E0203311F40068EDC004C0E330B8
:1003DE0011F00C94DA02203310F02A3308F007C023
:1003EE00AAE05A9F502DE22FE0535E0FDCC0E22FA1
:1003FE00E33649F40E94E803E889F989A481AA93B7
:10040E000E94EE03CFC0E33741F40E94E8030E943E
:10041E00F4030E94B9031E2F0AC0E03761F40E9454
:10042E00E8030E94F4030E94C5031E2F08600260B9
:10043E000F7730E035C0E43611F0E93611F4046080
:10044E0002C0E53731F4E4E5F0E0EE83FF8315E01A
:10045E000DC0E83511F4086004C0E83711F00C94B3
:10046E00D902EEE5F0E0EE83FF8314E002FF14C044
:10047E000E94E8030E94FE03AB85AA233AF4EA85A4
:10048E00FB850E941305EA87FB874DE2403011F091
:10049E001F5F01C00B7F04C00E94E8030E94FE0391
:1004AE0000FD11C0151778F407FF08C002FF04C045
:1004BE000B7F242F115001C020E301C020E20E94C7
:1004CE00E1035150EFCF312F01FF17C03030A1F0B3
:1004DE0003FF06C0EE81FF812591EE83FF8305C0E9
:1004EE00AE81BF812D91AE83BF830E94E103503058
:1004FE0009F051503150EACF4BC020E3EE81FF811D
:10050E000E942805E887F987EE81FF813296EE83F7
:10051E00FF83E885F985AA85BB85AE17BF0750F026
:10052E002F5FA885B985EA85FB85EA1BFB0BEA8759
:10053E00FB87EFCF2A3328F003FF02C0295F01C0EB
:10054E00295D04FD1AC0213320F4A885B9851197C1
:10055E0009F409C0531710F000FF01C013C020E2C8
:10056E0007FF0BC020E3006102FF07C00B7F4A9319
:10057E000E94EE03503009F051500E94E1035030BA
:10058E0009F051503150A885B985129708F0B5CFB2
:10059E0000FF08C0503031F05150E0E2EA930E9463
:1005AE00EE03F8CF10E0DDCEAC85BD850E942405AC
:1005BE000E94380564960895FF92F82E26970E94A1
:1005CE0033050E940604309719F4EFEFFFEF23C0B6
:1005DE00DE0116960E940F058D010E940604EE8321
:1005EE00FF83E0E0E887E987DE011A960E940F0597
:1005FE000E942405FA93EA931A930A93ECE6F1E02B
:10060E00FA93EA93DE011A96A0DE9F01AE81BF81B6
:10061E00E0E0EC93F9010E943A052A96FF900895C6
:10062E00AA93E8B3EF70AE2FE881E07FEA2BE8BB28
:10063E008BE08A95F1F7C29A8BE18A95F1F7C29811
:10064E008BE18A95F1F78CC0AA93A881E9DFE88146
:10065E00E295E883A881E4DF88EC90E00197F1F75A
:10066E007FC0AA93E881F0E0EB57FD4FE081A981AE
:10067E00AE0FEADF6980988022960895A2E0E4DF4B
:10068E00A3E00E94D203ACE0DFDFA1E0DDDFA3E058
:10069E000E94D203E0E09E2E6E2E0895AA93A881AA
:1006AE00AA3011F0681448F0E0E0EA939394A92D73
:1006BE00D8DFA881AA3009F453C06394C09AA881E8
:1006CE00C3DFC0984DC0BA93AA931A93A981BA8179
:1006DE00ED91A983BA831E2FE03019F0A12FDEDF32
:1006EE00F5CF10C0BA93AA931A93E981FA81319685
:1006FE00E983FA833197E4911E2FE03019F0A12F90
:10070E00CDDFF3CF188123960895AA93E7B3E06F58
:10071E00E7BBBA9AB89AB99AC298C098C19888801D
:10072E00E881E058E0938702E881E054E093880284
:10073E00A4E10E94D2030E940D040E940D040E94A7
:10074E000D04A0E26DDF80E991E00197F1F7A8E2D8
:10075E007BDFA4E079DFA5E877DFA6E075DF8EDF2B
:10076E0021960895BA93AA93A991B991EE27FF27DE
:10077E006D91662311F03196FBCF0895BA93AA932B
:10078E00AA27BB27E991F9910590002011F0119647
:10079E00FBCFFD010895B0E00C9415040E9479037F
:1007AE00E0E0EA93A1E00E943803E0E6F2E0FA937B
:1007BE00EA9308952A93AD85BE85EF85F88909954C
:1007CE000895E889F9893497E88BF98B0895AD85FA
:1007DE00BE85EF85F88909950895A889B98914967B
:1007EE000E942405EE83FF83AE81BF810895A88900
:1007FE00B98914960E942405EA87FB870895DE01C5
:10080E001C960E940F050E9424050895A0E30E94E5
:10081E00170380E991E00197F1F70895109639F0EA
:10082E0080EA9FE00197F1F7A8951197C9F708950F
:10083E00552342F4503811F4E0FF04C03196691F7D
:10084E00791F6BF050E8572711F45F933CC05F3F60
:10085E0031F0660F000C57956795752F08955F93CD
:10086E0000200AF03CC035C050E8192E1522880F22
:10087E00991F9527550F879550E8072E0522660F6D
:10088E00771F7527550F67950895689401C0E894F2
:10089E00309760407040B1F0002426F0772312F4B8
:1008AE000094BED0172E7EE1112032F07A95EE0F15
:1008BE00FF1F661F111CF9CFEF2FF62F612D5F93CF
:1008CE00C1DF5F910895EE27FF27662777275F9197
:1008DE000895EFEFFFEF6FE77FEF5F910895EFEF72
:1008EE00FFEF6FE77FE75F9108955F93BDDF70388D
:1008FE0051F3903841F301240894791F23F41CF32B
:10090E0000203AF3ECCF0F921F932F933F934F9308
:10091E00112722279927689FA0018F9F302D410D07
:10092E00591F6B9F300D411D591F8E9F27D0BF9FA2
:10093E0025D06A9F23D0BE9F1DD0AF9F1BD0AE9FE8
:10094E00110D291F391F491F591FE32FF42F652F32
:10095E00522F4F913F912F911F910F9066232AF0A6
:10096E00550FEE1FFF1F661F02C073954BF260DF1F
:10097E005F910895100D211D391F02C0200D311DEC
:10098E00491F591F08955F936FDF703821F41120AE
:10099E000AF49FCFA4CF903809F495CF0124089480
:1009AE00970B1BF4D4F30020F3CF792F1F932F93C3
:1009BE003F934F931124112722273327442755277E
:1009CE0090E2AE17BF078607410730F0AE1BBF0B94
:1009DE00860B410B089401C08894551F221F331FAC
:1009EE00111CAA1FBB1F881F441F9A9551F7F901AE
:1009FE00612D4F913F912F911F91662332F0550F2C
:100A0E00EE1FFF1F661F7A9543F212DF5F91089566
:100A1E000024AF0DB01D0895F195E195F0400895B5
:100A2E00F09560957095E195FF4F6F4F7F4F08954C
:100A3E006F2F660F660B762F0895ED91FC9111972F
:100A4E0008950590F491E02D08957A936A93FA93A0
:100A5E00EA9308955A934A933A932A931A930A93D0
:100A6E0008955D814C813B812A8119810881089509
:00000001FF
