:0A0000000C9448000C9400000C94CE
:10000A0000000C9400000C9400000C9400000C9466
:10001A0000000C9400000C9400000C9400000C9456
:10002A0000000C9400000C9400000C9400000C9446
:10003A0000000C9400000C9400000C9400000C9436
:10004A0000000C9400000C9400001027E8036400E0
:10005A000A0001000010000110000100506C7567D1
:10006A00203520313233313430303439004B656336
:10007A00204443203A2031323820000080C0020058
:10008A00600186000000F894EE27ECBBF1E0FBBFAC
:10009A00EBBFE5BFF8E1F1BDE1BD8DE0A2E0BB2712
:1000AA00ED938A95E9F780E094E0A0E6ED93019755
:1000BA00E9F7E8E8F0E085919591009761F0A5915C
:1000CA00B59105901590BF01F00105900D92019729
:1000DA00E1F7FB01F0CFEFE5EDBFE4E0EEBFC0E6EC
:1000EA00D1E00C947800E0E0EBBBEABBE8BBE7BBED
:1000FA00E5BBE4BBE2BBE0E3E1BBE0E0E3BFE2BFB8
:10010A00ECBFE1EAEFBDE8E0EEBDE0E0EDBDECBD3D
:10011A00E7BDE6BDEBBDEABDE9BDE8BDE2BDE5BDB3
:10012A00E4BDE3BDE5BFE4BFE9BFEAB9E0E8E8B989
:10013A00E0E0E0BFE6B9EDB9E6BFA0E10E94270121
:10014A007894E0E0EA93A0E00E94E600A6E6B0E038
:10015A000E941401E0E0EA93A1E00E94E600A7E70A
:10016A00B0E00E941401909A91989398949AE0E8CA
:10017A00F0E0FBBDEABDEFEFF0E0F9BDE8BDE1CF8D
:10018A00FFCFAA93EBB3EF70AE2FE881E07FEA2BA3
:10019A00EBBB85E08A95F1F7DA9A8DE08A95F1F75B
:1001AA00DA988DE08A95F1F779C0AA93A881E9DFF8
:1001BA00E881E295E883A881E4DF85E88A95F1F78A
:1001CA006DC0AA93E881F0E0E05AFE4FE081A98170
:1001DA00AE0FEBDF5980488022960895A2E00E9474
:1001EA005501ACE0E2DFA1E00E945501E0E04E2EAD
:1001FA005E2E0895AA93A881AA3011F0571448F0E8
:10020A00E0E0EA934394A42DDCDFA881AA3009F444
:10021A0045C05394D89AA881C8DFD8983FC0BA93EA
:10022A00AA931A93E981FA813196E983FA8331977D
:10023A00E4911E2FE03019F0A12FDCDFF3CF1881F3
:10024A0023960895AA93EAB3E06FEABBD29AD09AAA
:10025A00D19ADA98D898D9987880E881E058E093CA
:10026A006201E881E054E0936301A4E1B0E00E94F6
:10027A0063010E945B010E945B010E945B01A0E294
:10028A0080DF88EC90E00197F1F7A8E28EDFA4E026
:10029A008CDFA5E88ADFA6E088DFA0DF2196089533
:1002AA000E94DA00A3E0B0E00C946301A0E30E948C
:1002BA00C60088EC90E00197F1F70895109639F09E
:1002CA0080ED97E00197F1F7A8951197C9F708957E
:00000001FF
